:1000000000200010FD030000410400004104000036
:100010004104000041040000410400000000000011
:10002000000000000000000000000000410400008B
:1000300041040000000000004104000041040000F1
:10004000410400004104000041040000410400009C
:10005000410400004104000041040000410400008C
:10006000410400004104000041040000410400007C
:10007000410400004104000041040000410400006C
:10008000410400004104000041040000410400005C
:10009000410400004104000041040000410400004C
:1000A000410400004104000041040000410400003C
:1000B000410400004104000041040000410400002C
:1000C000410400004104000041040000410400001C
:1000D000410400004104000041040000410400000C
:1000E00041040000410400004104000041040000FC
:1000F00041040000410400004104000041040000EC
:1001000041040000410400004104000041040000DB
:100110000000000041040000410400004104000010
:040120004104000096
:100124000348044B834202D0034B03B11847704782
:100134000000001000000010000000000548064BFD
:100144001B1AD90F01EBA301491002D0034B03B1D1
:100154001847704700000010000000100000000065
:1001640010B5064C237843B9FFF7DAFF044B13B1FB
:100174000448AFF300800123237010BD0000001079
:10018400000000008C04000008B5054B1BB10549B4
:100194000548AFF30080BDE80840FFF7CFBF00BFBC
:1001A40000000000040000108C04000030B500EBD7
:1001B400400E10B300204FF0010C02466546144C6B
:1001C4004FEA4E0ED4F8FC1F05FA02F303F00F03B6
:1001D40041F00F0121EA03010E4BC4F8FC1F013B5F
:1001E400FDD16244D2B2022A0FD8002A08BF4FF0D0
:1001F400010C0130C0B27045E4DB054AD2F8FC3F83
:1002040043F00F03C2F8FC3F30BD4FF0FF3CF0E772
:1002140000300350400D03001C49D1F8FC3F43F06B
:100224000F03C1F8FC3F40B30022D1F8FC3F5FFA52
:1002340082FC83F00103C1F8FC3FD30717D4D1F843
:10024400FC3F1CF0030F83F00203C1F8FC3F05D10F
:10025400D1F8FC3F83F00403C1F8FC3F1CF0070F06
:1002640005D1D1F8FC3F83F00803C1F8FC3F084BEB
:10027400013BFDD101329042D7D1044AD2F8FC3F70
:1002840043F00F03C2F8FC3F704700BF0030035037
:10029400400D0300B8B330B54FF0010C4FF0000E21
:1002A400194900252C46D1F8FC2F0CFA05F31C4300
:1002B400E4B242F00F0222EA0402144BC1F8FC2F0C
:1002C400013BFDD10135042DEDD1114B013BFDD195
:1002D40003240F25D1F8FC2F0CFA04F325EA0305B7
:1002E40042F00F0222EA0502084BC1F8FC2F013B41
:1002F400FDD1013CEED2064B013BFDD10EF1010EC6
:100304008645CED130BD704700300350400D030008
:10031400801A0600344908B5D1F88030334A43F0D6
:100324004003C1F880301368314C43F00F0313606D
:10033400D4F8FC3F43F00F03C4F8FC3F0320FFF75D
:1003440035FF2C4B013BFDD102204FF0FF31D4F897
:10035400FC2F284B42F00F020A40C4F8FC2F013B4B
:10036400FDD1013911F1110FF1D1012801D0012082
:10037400EBE7D4F8FC2F1F4B42F00F02C4F8FC2F1C
:10038400013BFDD12020FFF747FF1A4B013BFDD174
:100394000421D4F8FC2F174B22F0050242F00A0284
:1003A400C4F8FC2F013BFDD1D4F8FC2F114B22F0F3
:1003B4000A0242F00502C4F8FC2F013BFDD14B1E9A
:1003C40013F0FF01E5D1D4F8FC2F0A4B42F00F02E1
:1003D400C4F8FC2F013BFDD10220FFF75BFF054B66
:1003E400013BFDD1AAE700BF008004400080035018
:1003F40000300350801A0600002103E00A4B5B58CA
:100404004350043109480A4B42189A42F6D3094A28
:1004140002E0002342F8043B074B9A42F9D300F070
:100424000FF8FFF777FF7047AC04000000000010DE
:1004340000000010000000101C000010FEE7000087
:1004440070B500260C4D0D4B5B1B9C10A64209D1C8
:10045400002600F019F80A4D0A4B5B1B9C10A642BB
:1004640005D170BD55F8043B98470136EEE755F8C1
:10047400043B98470136F2E7A4040000A4040000FA
:10048400A4040000A8040000F8B500BFF8BC08BC30
:100494009E467047F8B500BFF8BC08BC9E4670473E
:0404A4008D010000C6
:0404A80065010000EA
:04000003000003FDF9
:00000001FF
