:100000000020001085020000C9020000C9020000A3
:10001000C9020000C9020000C9020000000000007F
:10002000000000000000000000000000C902000005
:10003000C902000000000000C9020000C90200005F
:10004000C9020000C9020000C9020000C902000084
:10005000C9020000C9020000C9020000C902000074
:10006000C9020000C9020000C9020000C902000064
:10007000C9020000C9020000C9020000C902000054
:10008000C9020000C9020000C9020000C902000044
:10009000C9020000C9020000C9020000C902000034
:1000A000C9020000C9020000C9020000C902000024
:1000B000C9020000C9020000C9020000C902000014
:1000C000C9020000C9020000C9020000C902000004
:1000D000C9020000C9020000C9020000C9020000F4
:1000E000C9020000C9020000C9020000C9020000E4
:1000F000C9020000C9020000C9020000C9020000D4
:10010000C9020000B1010000C9020000C9020000DC
:1001100000000000C9020000C9020000C90200007E
:04012000C902000010
:100124000348044B834202D0034B03B11847704782
:100134000000001000000010000000000548064BFD
:100144001B1AD90F01EBA301491002D0034B03B1D1
:100154001847704700000010000000100000000065
:1001640010B5064C237843B9FFF7DAFF044B13B1FB
:100174000448AFF300800123237010BD0000001079
:10018400000000001403000008B5054B1BB105492D
:100194000548AFF30080BDE80840FFF7CFBF00BFBC
:1001A400000000000400001014030000064B1A6B4A
:1001B400D20707D501211B690448054AC3F38913F3
:1001C40003801170704700BF00C001401E00001082
:1001D4001C00001030B502244FF0010C4FF0E02059
:1001E4004FF080751F4B2049D3F88020DFF87CE066
:1001F40042F04002C3F880200A6842F080020A609C
:10020400D3F88020A1F5A04142F40052C3F8802025
:10021400A3F58043164ADC67A3F520331A60154C16
:10022400C3F80CC0C0F80051DFF84CC01348238851
:10023400D1F8FC2F9BB20EFB03F382F08002C1F8CD
:10024400FC2FACFB03529B1A02EB5302A0EB52228D
:10025400531E002AEBD000BF1A46013B002AFAD1F4
:10026400E5E700BF0080044000800050D0DD0600B8
:10027400010B21001E0000100510400020A1070002
:10028400002103E00A4B5B584350043109480A4BF0
:1002940042189A42F6D3094A02E0002342F8043B8A
:1002A400074B9A42F9D300F00FF8FFF793FF70471A
:1002B40034030000000000100000001000000010D3
:1002C40020000010FEE7000070B500260C4D0D4B19
:1002D4005B1B9C10A64209D1002600F019F80A4DB8
:1002E4000A4B5B1B9C10A64205D170BD55F8043B1C
:1002F40098470136EEE755F8043B98470136F2E794
:100304002C0300002C0300002C0300003003000029
:10031400F8B500BFF8BC08BC9E467047F8B500BFEE
:08032400F8BC08BC9E467047BE
:04032C008D0100003F
:040330006501000063
:040000030000028572
:00000001FF
