:10000000002000105D030000A1030000A103000018
:10001000A1030000A1030000A103000000000000F4
:10002000000000000000000000000000A10300002C
:10003000A103000000000000A1030000B1010000C6
:10004000A1030000A1030000A1030000A103000020
:10005000A1030000A1030000A1030000A103000010
:10006000A1030000A1030000A1030000A103000000
:10007000A1030000A1030000A1030000A1030000F0
:10008000A1030000A1030000A1030000A1030000E0
:10009000A1030000A1030000A1030000A1030000D0
:1000A000A1030000A1030000A1030000A1030000C0
:1000B000A1030000A1030000A1030000A1030000B0
:1000C000A1030000A1030000A1030000A1030000A0
:1000D000A1030000A1030000A1030000A103000090
:1000E000A1030000A1030000A1030000A103000080
:1000F000A1030000A1030000A1030000A103000070
:10010000A1030000A1030000A1030000A10300005F
:1001100000000000A1030000A1030000A1030000F3
:04012000C101000019
:100124000348044B834202D0034B03B11847704782
:100134000000001000000010000000000548064BFD
:100144001B1AD90F01EBA301491002D0034B03B1D1
:100154001847704700000010000000100000000065
:1001640010B5064C237843B9FFF7DAFF044B13B1FB
:100174000448AFF300800123237010BD0000001079
:1001840000000000EC03000008B5054B1BB1054955
:100194000548AFF30080BDE80840FFF7CFBF00BFBC
:1001A4000000000004000010EC030000024A136881
:1001B40001331360704700BF24000010214B9A697B
:1001C40092073ED502202049204AD8610B68106866
:1001D4001B1A322B35D909681D4B116019681D4A49
:1001E40001311960D2F8FC1F81F00101C2F8FC1F33
:1001F400196811F0010FD2F8FC1F14BF21F002019D
:1002040041F00201C2F8FC1F1A68124912F0020FF1
:10021400D1F8FC2F14BF22F0040242F00402C1F80A
:10022400FC2F1B680B4A13F0040FD2F8FC3F04D0D8
:1002340023F00803C2F8FC3F704743F00803C2F8F8
:10024400FC3F704700800050240000102000001084
:100254001C0000100030035001211048104AD0F84F
:10026400803010B443F480330E4C43F04003C0F8A4
:100274008030C2F88410C2F88810C2F89C10C2F80A
:10028400AC102368084843F00F032360D0F8FC3F08
:1002940010BC43F00F03C0F8FC3F704700800440DB
:1002A40000400440008003500030035030B4002567
:1002B40002244FF0E0214FF000400D4A0D4B156130
:1002C4001A6822F002021A605A6822F002025A6086
:1002D4009A6822F002029A60DA6822F00202DA6076
:1002E400DC611A6922431A6130BCC1F8000170470D
:1002F400004004400080005000B583B0FFF7ACFF1D
:1003040000244FF0E0230722104959619C611A61CF
:10031400FFF7CCFF0E490F4AD1F8FC3F23F00F033F
:10032400C1F8FC3F0194019B934205DC019B01331E
:100334000193019B9342F9DD054AD2F8FC3F43F057
:100344000F03C2F8FC3F30BFFDE700BF3F190100B7
:10035400003003501FA10700002103E00A4B5B5843
:100364004350043109480A4B42189A42F6D3094AC9
:1003740002E0002342F8043B074B9A42F9D300F011
:100384000FF8FFF7B9FF70470C04000000000010DD
:10039400000000100000001028000010FEE700001C
:1003A40070B500260C4D0D4B5B1B9C10A64209D169
:1003B400002600F019F80A4D0A4B5B1B9C10A6425C
:1003C40005D170BD55F8043B98470136EEE755F862
:1003D400043B98470136F2E70404000004040000DB
:1003E4000404000008040000F8B500BFF8BC08BC11
:1003F4009E467047F8B500BFF8BC08BC9E467047DF
:040404008D01000066
:04040800650100008A
:040000030000035D99
:00000001FF
