:100000000020001079020000BD020000BD020000C7
:10001000BD020000BD020000BD02000000000000A3
:10002000000000000000000000000000BD02000011
:10003000BD02000000000000BD020000BD02000083
:10004000BD020000BD020000BD020000BD020000B4
:10005000BD020000BD020000BD020000BD020000A4
:10006000BD020000BD020000BD020000BD02000094
:10007000BD020000BD020000BD020000BD02000084
:10008000BD020000BD020000BD020000BD02000074
:10009000BD020000BD020000BD020000BD02000064
:1000A000BD020000BD020000BD020000BD02000054
:1000B000BD020000BD020000BD020000BD02000044
:1000C000BD020000BD020000BD020000BD02000034
:1000D000BD020000BD020000BD020000BD02000024
:1000E000BD020000BD020000BD020000BD02000014
:1000F000BD020000BD020000BD020000BD02000004
:10010000BD020000BD020000BD020000BD020000F3
:1001100000000000BD020000BD020000BD020000A2
:04012000BD0200001C
:100124000348044B834202D0034B03B11847704782
:100134000000001000000010000000000548064BFD
:100144001B1AD90F01EBA301491002D0034B03B1D1
:100154001847704700000010000000100000000065
:1001640010B5064C237843B9FFF7DAFF044B13B1FB
:100174000448AFF300800123237010BD0000001079
:10018400000000000803000008B5054B1BB1054939
:100194000548AFF30080BDE80840FFF7CFBF00BFBC
:1001A40000000000040000100803000000202B4B96
:1001B40030B5D3F880202A4C42F04002C3F88020A6
:1001C4002268022142F08002226001250446DFF801
:1001D40094E0DFF894C0DEF8FC2F42F08002CEF801
:1001E400FC2F8CF80000D3F8802042F40052C3F8AE
:1001F4008020A3F58043D9671C491D4B0B600B6815
:1002040043F080730B604B68002BFCDA0A68C3F37D
:10021400891322F0E0620A60A0B9B3F5967F07D291
:10022400DEF8FC3F23F08003CEF8FC3F8CF800504E
:100234004CF24F3300BF1A46013B002AFAD19CF816
:100244000000DCE7B3F5C87FF2D9DEF8FC3F43F0E9
:100254008003CEF8FC3F8CF80040E9E700800440BE
:1002640000800050003000501C00001000C001400D
:10027400010B2000002103E00A4B5B58435004317A
:1002840009480A4B42189A42F6D3094A02E000236D
:1002940042F8043B074B9A42F9D300F00FF8FFF7FA
:1002A40085FF7047280300000000001000000010C4
:1002B4000000001020000010FEE7000070B50026CA
:1002C4000C4D0D4B5B1B9C10A64209D1002600F07F
:1002D40019F80A4D0A4B5B1B9C10A64205D170BD50
:1002E40055F8043B98470136EEE755F8043B984728
:1002F4000136F2E720030000200300002003000081
:1003040024030000F8B500BFF8BC08BC9E46704743
:0C031400F8B500BFF8BC08BC9E4670475E
:040320008D0100004B
:04032400650100006F
:04000003000002797E
:00000001FF
