:1000000000200010150A0000590A0000590A0000DB
:10001000590A0000590A0000590A000000000000B7
:10002000000000000000000000000000590A00006D
:10003000590A000000000000590A0000590A000097
:10004000590A0000590A0000590A0000590A000024
:10005000590A0000590A0000590A0000590A000014
:10006000590A0000590A0000590A0000590A000004
:10007000590A0000590A0000590A0000590A0000F4
:10008000590A0000590A0000590A0000590A0000E4
:10009000590A0000590A0000590A0000590A0000D4
:1000A000590A0000590A0000590A0000590A0000C4
:1000B000590A0000590A0000590A0000590A0000B4
:1000C000590A0000590A0000590A0000590A0000A4
:1000D000590A0000590A0000590A0000590A000094
:1000E000590A0000590A0000590A0000590A000084
:1000F000590A0000590A0000590A0000590A000074
:10010000590A0000590A0000590A0000590A000063
:1001100000000000590A0000590A0000590A0000B6
:04012000590A000078
:100124000348044B834202D0034B03B11847704782
:100134000000001000000010000000000548064BFD
:100144001B1AD90F01EBA301491002D0034B03B1D1
:100154001847704700000010000000100000000065
:1001640010B5064C237843B9FFF7DAFF044B13B1FB
:100174000448AFF300800123237010BD0000001079
:1001840000000000A40A000008B5054B1BB1054996
:100194000548AFF30080BDE80840FFF7CFBF00BFBC
:1001A4000000000004000010A40A0000114B00012C
:1001B4000121B3FBF0F3F0B48027032607250E4A90
:1001C4000E48D2F8804044F48054C2F88040C2F80B
:1001D4009810C0F8A410A2F58022C0F8A810D9B2D3
:1001E400C3F30723D76011605360D6609560F0BCF9
:1001F400704700BF00A24A0400800440004004404D
:10020400017841B1044A53699B06FCD5116010F88A
:10021400011F0029F7D1704700800040012984465E
:1002240051D000202A4B10B501F1FF3E5A69D20784
:10023400FCD51A68D2B20D2A26D00A2A24D0082A5C
:1002440014D07F2A12D01B2A2ED01F2A06D870451C
:10025400ECD3002384448CF8003010BD596989061E
:10026400FCD51A600CF800200130F0E70028DDD03E
:100274000821184C01385A699206FCD5196014F803
:10028400011F0029F7D1E2E70D21134C104A5369ED
:100294009B06FCD5116014F8011F0029F7D1002337
:1002A40084448CF80030D8E70D210C48084A53697F
:1002B4009C06FCD5116010F8011F0029F7D18CF8B9
:1002C4000010084610BD002300208CF80030704751
:1002D40000800040C40A0000BC0A0000C80A0000F4
:1002E40009480A49D0F88030094A43F04003C0F86D
:1002F40080300B6843F00F030B60D2F8FC3F43F0EF
:100304000F03C2F8FC3F7047008004400080035094
:10031400003003500378202B03D110F8013F202B29
:10032400FBD003B9704730B50578002D00F0BD80CF
:1003340084462A4668238D494BB1934207D11CF861
:10034400012F12B111F8013FF6E74B7893B13F2327
:1003540001462A46864C5BB19A4240F0858011F8EA
:10036400012F002A00F09F8014F8013F002BF3D1E5
:100374009A4279D17F490D200C467F4A53699B06E6
:10038400FCD5106014F8010F0028F7D141207B4CF4
:10039400794A53699D06FCD5106014F8010F0028B2
:1003A400F7D12020764C744A53699B06FCD5106023
:1003B40014F8010F0028F7D12020724C6E4A5369BB
:1003C4009D06FCD5106014F8010F0028F7D12020F9
:1003D4006D4C694A53699B06FCD5106014F8010FF3
:1003E4000028F7D12020694C634A53699D06FCD547
:1003F400106014F8010F0028F7D12020644C5E4AE5
:1004040053699B06FCD5106014F8010F0028F7D13E
:100414002020604C584A53699D06FCD5106014F89E
:10042400010F0028F7D120205B4C534A53699B06E7
:10043400FCD5106014F8010F0028F7D12020574C88
:100444004D4A53699D06FCD5106014F8010F00282D
:10045400F7D10D20484A53699C06FCD5106011F869
:10046400010F0028F7D130BD01462A466C234C4CBD
:1004740043B1934208D111F8012F12B114F8013F8E
:10048400F6E763789A4251D001462A466C23454CDC
:100494005BB1934209D111F8012F002A00F090803A
:1004A40014F8013FF4E7637862E76C233E4C421E84
:1004B40002E014F8013FC3B112F8011F9942F8D0C9
:1004C400002D00F05B8104462A4662233749002B45
:1004D40000F0D580934240F0C28014F8012F002A26
:1004E40000F0CC8011F8013FF1E70579A5F1300E59
:1004F4005FFA8EFEBEF1030F2BD843790530202B13
:1005040003D110F8013F202BFBD013B30446194646
:100514006F22DFF89CC0002A79D08A4267D114F890
:10052400011F002971D01CF8012FF4E74121214C4F
:100534002148D4F8FC3F104A23F00F03C4F8FC3FD1
:1005440053699B06FCD5116010F8011F0029F7D1EF
:1005540030BD55211948084A53699B06FCD51160E2
:1005640010F8011F0029F7D130BD00BFE00A0000D8
:10057400E80A0000BC0A000000800040F40A000001
:100584000C0B0000380B00005C0B0000800B00001B
:10059400A80B0000D00B0000FC0B0000240C000092
:1005A400EC0A0000480C0000D80A0000700C00009F
:1005B400F00A000000300350500C00007C0C0000D6
:1005C4006378002B7FF471AF4121974C9748D4F89E
:1005D400FC3F974A43F00F03C4F8FC3F53699D0660
:1005E400FCD5116010F8011F0029F7D130BD6F222E
:1005F4009049002AADD09A42ABD110F8013F002BAC
:1006040000F0E98011F8012FF3E79CF801208A42F9
:10061400EDD101224C21844C02FA0EF2D4F8FC3FB5
:10062400854823EA0203824AC4F8FC3F53699C06C6
:10063400FCD5116010F8011F0029F7D17C4C6369C7
:100644009B06FCD520217D48794A256053699D0687
:10065400FCD5116010F8011F0029F7D130BD044604
:100664002A4663237649002B4CD093423AD114F89E
:10067400012F002A45D011F8013FF4E74B7893424B
:10068400EDD142216F486A4A53699D06FCD5116039
:1006940010F8011F0029F7D105206349D1F8FC2F78
:1006A400694B22F00F02C1F8FC2F1A46013B002AC5
:1006B400FBD1D1F8FC2F644B42F00F02C1F8FC2FA0
:1006C4001A46013B002AFBD10138E7D144215F4897
:1006D400574A53699C06FCD5116010F8011F002984
:1006E400F7D130BD01467323594A002B46D0AB42A3
:1006F40044D111F8015F002D00F0B88012F8013FD9
:10070400F3E74B789342EDD14C215248484A536960
:100714009B06FCD5116010F8011F0029F7D10325B1
:10072400012441490020D1F8FC3F04FA00F243F0CF
:100734000F03C1F8FC3FD1F8FC3F23EA0203C1F8E0
:10074400FC3F454B1A46013B002AFBD101300428EB
:10075400E9D1013DE6D14421334C3C48D4F8FC3F77
:10076400334A43F00F03C4F8FC3F53699D06FCD59C
:10077400116010F8011F0029F7D130BD5521374C05
:100784002B4A53699B06FCD5116014F8011F0029FC
:10079400F7D1017841B1264A53699D06FCD5116011
:1007A40010F8011F0029F7D127212D48204A536949
:1007B4009C06FCD5116010F8011F0029F7D15421C3
:1007C40028481B4A53699B06FCD5116010F8011F89
:1007D4000029F7D130BD4B78002B7FF4BAAE01234A
:1007E4004C21114A03FA0EF3D2F8FC4F124823436A
:1007F400C2F8FC3F0E4A53699C06FCD5116010F800
:10080400011F0029F7D10A4C63699B06FCD52021FE
:100814001548074A256053699C06FCD5116010F8F9
:10082400011F0029F7D130BD00300350600C0000D7
:10083400008000404C0C0000780C0000580C0000B4
:10084400B40C0000BC0C000040420F00D00C0000AF
:10085400D80C0000E00C000020A10700840D00006B
:10086400980D00009C0D0000680C00005378002BCC
:1008740084D10D213F48404A53699C06FCD5116040
:1008840010F8011F0029F7D13D213C483A4A536929
:100894009B06FCD5116010F8011F0029F7D14D21EA
:1008A4003748354A53699D06FCD5116010F8011F7D
:1008B4000029F7D1432133482F4A53699C06FCD5BC
:1008C400116010F8011F0029F7D155212E482A4A3A
:1008D40053699B06FCD5116010F8011F0029F7D15C
:1008E4004C212A48244A53699D06FCD5116010F80E
:1008F400011F0029F7D14C21254B2648D3F8FCCF02
:100904001D4A53699C06FCD5116010F8011F00298B
:10091400F7D13D2501242020174B5A699206FCD5B6
:1009240001F130021A605A699206FCD504FA01F208
:1009340012EA0C0F0CBF4FF0310E4FF0300E1D6059
:100944005A699206FCD50329C3F800E005D05A6918
:100954009206FCD518600131DFE70D210E48064AE6
:1009640053699C06FCD5116010F8011F0029F7D1CA
:1009740030BD00BFBC0A000000800040F80C00003D
:10098400100D0000200D0000300D00004C0D000083
:10099400003003506C0D00007C0D000000B591B0D8
:1009A400FFF79EFC4FF4E130FFF700FC1248FFF71D
:1009B40027FC1248FFF724FC1148FFF721FC0F48DD
:1009C400FFF71EFC0F48FFF71BFC0B48FFF718FC52
:1009D4000D4C3E220D4963699B06FCD5226011F83B
:1009E400012F002AF7D140216846FFF717FC68461B
:1009F400FFF790FCEDE700BFBC0A0000C40D000047
:100A0400EC0D00009C0D000000800040100E000062
:100A1400002103E00A4B5B584350043109480A4B58
:100A240042189A42F6D3094A02E0002342F8043BF2
:100A3400074B9A42F9D300F00FF8FFF7AFFF704766
:100A44001C0E000000000010000000100000001048
:100A54001C000010FEE7000070B500260C4D0D4B85
:100A64005B1B9C10A64209D1002600F019F80A4D20
:100A74000A4B5B1B9C10A64205D170BD55F8043B84
:100A840098470136EEE755F8043B98470136F2E7FC
:100A9400140E0000140E0000140E0000180E0000C6
:100AA400F8B500BFF8BC08BC9E467047F8B500BF57
:080AB400F8BC08BC9E46704727
:100ABC000D0A000000000000082008000D0A5B432E
:100ACC00616E63656C6C65645D0D0A006C65642019
:100ADC000000000068656C70000000003F00000022
:100AEC006C6564206F6E0000417661696C61626CAC
:100AFC006520436F6D6D616E64733A0D0A000000E2
:100B0C00202068656C7020202020202020202D20A3
:100B1C0053686F7720746869732068656C70206DFA
:100B2C006573736167650D0A0000000020206C6519
:100B3C0064206F6E2020202020202D205475726E92
:100B4C0020616C6C204C454473206F6E0D0A0000C4
:100B5C0020206C6564206F666620202020202D20CC
:100B6C005475726E20616C6C204C454473206F661A
:100B7C00660D0A0020206C656420302D33206F6ECA
:100B8C0020202D205475726E207370656369666920
:100B9C0063204C4544206F6E0D0A000020206C65CC
:100BAC006420302D33206F6666202D205475726EB4
:100BBC00207370656369666963204C4544206F66D9
:100BCC00660D0A002020626C696E6B2020202020AC
:100BDC0020202D20426C696E6B20616C6C204C4582
:100BEC00447320352074696D65730D0A0000000094
:100BFC0020207374617475732020202020202D20F8
:100C0C0053686F772073797374656D207374617496
:100C1C0075730D0A00000000202063686173652065
:100C2C002020202020202D204C4544206368617317
:100C3C0065207061747465726E0D0A006C656420B9
:100C4C006F666600416C6C204C454473204F4E0D12
:100C5C000A000000416C6C204C454473204F464602
:100C6C000D0A0000626C696E6B0000004C4544007C
:100C7C0055736167653A206C6564206F6E207C202B
:100C8C006C6564206F6666207C206C656420302D5A
:100C9C0033206F6E207C206C656420302D33206FE8
:100CAC0066660D0A00000000636861736500000051
:100CBC00426C696E6B696E67204C4544732E2E2E08
:100CCC000D0A0000446F6E652E0D0A00737461747A
:100CDC00757300004C454420636861736520706136
:100CEC00747465726E2E2E2E0D0A00003D3D3D2053
:100CFC0053797374656D20537461747573203D3D25
:100D0C003D0D0A004D43553A204C5043313334339A
:100D1C000D0A0000436C6F636B3A203732204D484C
:100D2C007A0D0A00554152543A2031313532303067
:100D3C0020626175642C20384E310D0A00000000D1
:100D4C004C4544733A2050332E302D50332E3320E3
:100D5C00286163746976652D6C6F77290D0A000024
:100D6C004C4544205374617465733A2000000000B4
:100D7C000D0A0D0A00000000556E6B6E6F776E2029
:100D8C00636F6D6D616E643A20270000270D0A00B9
:100D9C0054797065202768656C702720666F722007
:100DAC00617661696C61626C6520636F6D6D616EFB
:100DBC0064732E0D0A0000003D3D3D3D3D3D3D3D23
:100DCC003D3D3D3D3D3D3D3D3D3D3D3D3D3D3D3D47
:100DDC003D3D3D3D3D3D3D3D3D3D3D3D0D0A000014
:100DEC004C50433133343320436F6D6D616E64204E
:100DFC004C696E6520496E746572666163650D0A97
:080E0C00000000003E20000080
:040E14008D0100004C
:040E18006501000070
:0400000300000A15DA
:00000001FF
