:100000000020001081030000C5030000C5030000AC
:10001000C5030000C5030000C50300000000000088
:10002000000000000000000000000000C503000008
:10003000C503000000000000C5030000C503000068
:10004000C5030000C5030000C5030000C503000090
:10005000C5030000C5030000C5030000C503000080
:10006000C5030000C5030000C5030000C503000070
:10007000C5030000C5030000C5030000C503000060
:10008000C5030000C5030000C5030000C503000050
:10009000C5030000C5030000C5030000C503000040
:1000A000C5030000C5030000C5030000C503000030
:1000B000C5030000C5030000C5030000C503000020
:1000C000C5030000C5030000C5030000C503000010
:1000D000C5030000C5030000C5030000C503000000
:1000E000C5030000C5030000C5030000C5030000F0
:1000F000C5030000C5030000C5030000C5030000E0
:10010000C5030000C5030000C5030000C5030000CF
:1001100000000000C5030000C5030000C503000087
:04012000C503000013
:100124000348044B834202D0034B03B11847704782
:100134000000001000000010000000000548064BFD
:100144001B1AD90F01EBA301491002D0034B03B1D1
:100154001847704700000010000000100000000065
:1001640010B5064C237843B9FFF7DAFF044B13B1FB
:100174000448AFF300800123237010BD0000001079
:10018400000000001004000008B5054B1BB1054930
:100194000548AFF30080BDE80840FFF7CFBF00BFBC
:1001A400000000000400001010040000012210B43C
:1001B4000E4C0F4BD4F880100E4841F04001C4F8A7
:1001C4008010C3F88420C3F88820C3F89C20C3F8A7
:1001D400AC200368084943F00F030360D1F8FC3FE7
:1001E40010BC43F00F03C1F8FC3F7047008004408B
:1001F400004004400080035000300350D2B370B577
:100204008646012505FA0EF514464FF0000CEE4320
:100214001948BEF1030F20D8D0F8FC2F0B4632400A
:10022400C0F8FC2F21B1013BFDD1BEF1030F0DD865
:10023400D0F8FC2F0B462A43C0F8FC2FA9B1013B90
:10024400FDD10CF1010C6445E3D170BD0B460029CE
:10025400F5D10CF1010C6445F7D00B460029E2D12D
:100264000CF1010C6445F8D1EFE70CF1010C644585
:10027400D2D170BD704700BF0030035025210C4A15
:1002840010B4D2F8383223F08003C2F838329160C7
:10029400D368D907FCD501230324002004499367BC
:1002A4001467506753674B6FDB07FCD510BC70476E
:1002B4000080044038B5FFF779FF2C4B2C48D3F865
:1002C400FC2F42F00F02C3F8FC2FD3F8FC2F22F0CE
:1002D4000102C3F8FC2F0138FDD1244C0522D4F8C7
:1002E400FC3F244943F00103C4F8FC3FFFF786FFB9
:1002F4001F4B013BFDD1FFF7C1FF1C4A1C4DD2F837
:10030400FC3F23F00203C2F8FC3F013DFDD1174C32
:100314000522D4F8FC3F012043F002031549C4F838
:10032400FC3FFFF76BFF8DB10025D4F8FC3F23F0B1
:100334000403C4F8FC3FD4F8FC1F0F4B41F0080140
:10034400C4F8FC1F013BFDD1002DEDD1D4F8FC1FF6
:10035400012541F00401C4F8FC1FD4F8FC1F064B2E
:1003640021F00801C4F8FC1FECE700BF0030035083
:1003740020A10700A0860100C0C62D00002103E0D3
:100384000A4B5B584350043109480A4B42189A42BD
:10039400F6D3094A02E0002342F8043B074B9A4291
:1003A400F9D300F00FF8FFF785FF70473004000021
:1003B4000000001000000010000000101C000010DD
:1003C400FEE7000070B500260C4D0D4B5B1B9C1026
:1003D400A64209D1002600F019F80A4D0A4B5B1B0E
:1003E4009C10A64205D170BD55F8043B98470136D0
:1003F400EEE755F8043B98470136F2E7280400007D
:1004040028040000280400002C040000F8B500BFF4
:10041400F8BC08BC9E467047F8B500BFF8BC08BCE1
:040424009E46704739
:040428008D01000042
:04042C006501000066
:040000030000038175
:00000001FF
