:1000000000200010C90700000D0800000D080000C6
:100010000D0800000D0800000D08000000000000A1
:100020000000000000000000000000000D080000BB
:100030000D080000000000000D0800000D08000081
:100040000D0800000D0800000D0800000D0800005C
:100050000D0800000D0800000D0800000D0800004C
:100060000D0800000D0800000D0800000D0800003C
:100070000D0800000D0800000D0800000D0800002C
:100080000D0800000D0800000D0800000D0800001C
:100090000D0800000D0800000D0800000D0800000C
:1000A0000D0800000D0800000D0800000D080000FC
:1000B0000D0800000D0800000D0800000D080000EC
:1000C0000D0800000D0800000D0800000D080000DC
:1000D0000D0800000D0800000D0800000D080000CC
:1000E0000D0800000D0800000D0800000D080000BC
:1000F0000D0800000D080000B10100000D0800000F
:100100000D0800000D0800000D0800000D0800009B
:10011000000000000D0800000D0800000D080000A0
:040120000D080000C6
:100124000348044B834202D0034B03B11847704782
:100134000000001000000010000000000548064BFD
:100144001B1AD90F01EBA301491002D0034B03B1D1
:100154001847704700000010000000100000000065
:1001640010B5064C237843B9FFF7DAFF044B13B1FB
:100174000448AFF300800123237010BD0000001079
:10018400000000005808000008B5054B1BB10549E4
:100194000548AFF30080BDE80840FFF7CFBF00BFBC
:1001A400000000000400001058080000174883688D
:1001B400D90703D403F00603042B00D07047436926
:1001C400DA07FBD5F0B4DFF848C0124C124E134DD9
:1001D400134F0AE0228892B20CF8021023802B6895
:1001E40001332B604369DB070DD50168238832880E
:1001F400013303F03F0392B29A42C9B2EAD13B6899
:1002040001333B60EBE7F0BC704700BF0080004067
:100214002800001026000010240000101C0000100C
:1002240020000010144A00010121B2FBF0F2F0B4E6
:100234004FF0E02C802703264FF400150F4B104895
:10024400D3F8804044F48054C3F88040C3F8981035
:10025400C0F8A410A3F58023C0F8A810D0B2C2F34C
:100264000722DF6018605A60DE6099605960CCF83C
:100274000051F0BC704700BF00A24A040080044053
:1002840000400440017841B1044A53699B06FCD5FF
:10029400116010F8011F0029F7D170470080004059
:1002A40009480A49D0F88030094A43F04003C0F8AD
:1002B40080300B6843F00F030B60D2F8FC3F43F02F
:1002C4000F03C2F8FC3F70470080044000800350D5
:1002D4000030035080B330B587B003AC2146002210
:1002E400194D8446A5FB00E3DB0803EB830EA0EB6A
:1002F4004E003030BCF1090F01F8010B02F101028C
:100304001846EED868466946A31813F801CDA342EF
:1003140001F801CBF9D100239DF800106A44137051
:1003240041B10A4A53699B06FCD5116010F8011FBC
:100334000029F7D107B030BD044A53699906FCD5AA
:1003440030231360704700BFCDCCCCCC008000407C
:10035400274B284A1B8812889B1A13F03F0329D085
:100364004FF0640C40F22660234A0CFB03F3D2F8EE
:10037400FC1F834221F00101C2F8FC1F21DD40F67D
:100384004D40D2F8FC1F834221F00201C2F8FC1F49
:100394001EDD41F27420D2F8FC1F834221F00401D7
:1003A400C2F8FC1F1BDDD2F8FC3F23F00803C2F89F
:1003B400FC3F7047104AD2F8FC3F43F00103C2F8F7
:1003C400FC3F0D4AD2F8FC3F43F00203C2F8FC3F65
:1003D400094AD2F8FC3F43F00403C2F8FC3F064A42
:1003E400D2F8FC3F43F00803C2F8FC3F704700BF5B
:1003F4002600001024000010003003500D2170B5B9
:100404004F48504A53699B06FCD5116010F8011FF0
:100414000029F7D142214C484A4A53699E06FCD52B
:10042400116010F8011F0029F7D1484E4020FFF752
:1004340051FF20213046434A53699D06FCD5116083
:1004440010F8011F0029F7D1442141483D4A53695E
:100454009C06FCD5116010F8011F0029F7D13D4D11
:100464003D4C28882388C01A00F03F00FFF732FF74
:100474002021344A53699B06FCD5116016F8011FEC
:100484000029F7D1542135482E4A53699E06FCD5DC
:10049400116010F8011F0029F7D1314B1868FFF7DC
:1004A40019FF20212F48274A53699B06FCD5116068
:1004B40010F8011F0029F7D14F212B48214A536915
:1004C4009E06FCD5116010F8011F0029F7D1274BB7
:1004D4001868FFF7FFFE0D2125481A4A53699B0649
:1004E400FCD5116010F8011F0029F7D148212148DB
:1004F400144A53699E06FCD5116010F8011F0029A7
:10050400F7D1288880B2FFF7E5FE2C211A480D4A5E
:1005140053699D06FCD5116010F8011F0029F7D11D
:10052400208880B2FFF7D6FE0D211448054A53698E
:100534009B06FCD5116010F8011F0029F7D170BD8E
:1005440070080000008000408C0800009C08000037
:10055400A80800002600001024000010BC080000B9
:100564001C000010D0080000DC080000200000106F
:10057400EC080000F0080000000900001009000069
:100584002DE9F84F0025FFF78BFE4FF4E130FFF71C
:1005940049FE7148FFF776FE7048FFF773FE704816
:1005A400FFF770FE6D48FFF76DFE6B48FFF76AFEBC
:1005B4006C48FFF767FE6C48FFF764FE6B48FFF773
:1005C40061FE6B48FFF75EFE6348FFF75BFE694818
:1005D400FFF758FE6848FFF755FE6848FFF752FEDC
:1005E4006748FFF74FFE6748FFF74CFE5A48FFF78E
:1005F40049FE6548FFF746FE6448FFF743FE64483A
:10060400FFF740FE2E46634FDFF88CA1DFF88C9194
:10061400634CDFF890813A88BAF8003092B29BB20A
:100624009A4234D0BAF800309BB219F80310BAF8E1
:1006340000300D2903F1010303F03F03CAB2AAF805
:1006440000307FD0A2F14603D9B22E291BD82E2B1D
:1006540019D8DFE803F068181818181818181818AB
:100664001818185B241818181818181818181818B7
:1006740018181818181868181818181818181818A6
:100684001818185B240063699B06FCD522600135A9
:10069400AB1B4345BFD9FFF75BFE2E46BBE70D22DC
:1006A400414963699806FCD5226011F8012F002A9C
:1006B400F7D1934654223D4963699B06FCD52260D9
:1006C40011F8012F002AF7D15846FFF703FE3A220A
:1006D400374963699806FCD5226011F8012F002A76
:1006E400F7D1344B1A46013B002AFBD10BF1010B25
:1006F400BBF10A0FDED15B222F4963699B06FCD54F
:10070400226011F8012F002AF7D1C0E7FFF776FE27
:100714003E222A4963699806FCD5226011F8012F0C
:10072400002AF7D1B3E70D223B8825499BB2AAF8EA
:10073400003063699B06FCD5226011F8012F002A62
:10074400F7D1A4E7124963699806FCD5226011F831
:10075400012F002AF7D19AE7EC08000018090000DD
:10076400440900006C09000078090000A409000095
:10077400C0090000E0090000EC090000140A0000B0
:10078400340A0000540A0000780A0000980A0000A5
:10079400C80A0000260000102400001028000010E1
:1007A400008000409F860100EC0A0000440B00001A
:1007B400240B0000A0860100500B0000D00A0000AA
:1007C400D40A0000002103E00A4B5B584350043173
:1007D40009480A4B42189A42F6D3094A02E0002318
:1007E40042F8043B074B9A42F9D300F00FF8FFF7A5
:1007F400C7FE70476C0B00000000001000000010E2
:100804000000001068000010FEE7000070B500262C
:100814000C4D0D4B5B1B9C10A64209D1002600F029
:1008240019F80A4D0A4B5B1B9C10A64205D170BDFA
:1008340055F8043B98470136EEE755F8043B9847D2
:100844000136F2E7640B0000640B0000640B000047
:10085400680B0000F8B500BFF8BC08BC9E467047A2
:0C086400F8B500BFF8BC08BC9E46704709
:100870000D0A3D3D3D2042756666657220537461E8
:10088000747573203D3D3D0D0A000000427566669B
:1008900065722073697A653A2000000020627974DD
:1008A00065730D0A000000004461746120696E20C8
:1008B0006275666665723A2000000000546F7461CC
:1008C0006C2072656365697665643A2000000000FB
:1008D0002063686172730D0A000000004F76657234
:1008E00072756E20636F756E743A20000D0A0000F9
:1008F0004865616420696E6465783A2000000000F4
:100900002C205461696C20696E6465783A2000007F
:100910000D0A0D0A000000003D3D3D3D3D3D3D3DC1
:100920003D3D3D3D3D3D3D3D3D3D3D3D3D3D3D3DF7
:100930003D3D3D3D3D3D3D3D3D3D3D3D3D3D0D0A4A
:10094000000000004C50433133343320496E74654D
:1009500072727570742D44726976656E20554152BD
:1009600054204578616D706C650D0A0046656174B0
:10097000757265733A0D0A0020202D20496E74654A
:1009800072727570742D64726976656E205258208B
:10099000776974682072696E672062756666657231
:1009A0000D0A000020202D204E6F6E2D626C6F63AB
:1009B0006B696E672072656164204150490D0A00C1
:1009C00020202D204275666665722066696C6C2059
:1009D0006C6576656C206F6E204C4544730D0A0083
:1009E000436F6D6D616E64733A0D0A002020547977
:1009F000706520616E792074657874202D20627591
:100A000066666572656420616E64206563686F6503
:100A1000640D0A002020277327202D2053686F774C
:100A200020627566666572207374617475730D0A51
:100A3000000000002020276627202D20466C7573BB
:100A400068207265636569766520627566666572A1
:100A50000D0A00002020277427202D205465737470
:100A60003A2073656E64206275727374206F66201D
:100A7000646174610D0A00004C4544732073686F13
:100A800077206275666665722066696C6C206C659D
:100A900076656C3A0D0A000020204C4544303D64D8
:100AA0006174612C204C4544313D3235252B2C207E
:100AB0004C4544323D3530252B2C204C4544333DAC
:100AC0003735252B0D0A00000D0A3E2000000000DE
:100AD0003E2000000D0A5B42756666657220666CFA
:100AE00075736865645D0D0A3E2000000D0A5B5356
:100AF000656E64696E6720746573742070617474C8
:100B000065726E202D207479706520666173742083
:100B1000746F2066696C6C20627566666572215D13
:100B20000D0A00003A204142434445464748494A9D
:100B30004B4C4D4E4F505152535455565758595A8D
:100B40000D0A000054657374206C696E6520000006
:100B50005B5465737420636F6D706C6574655D0DB7
:040B60000A3E200029
:040B64008D010000FF
:040B68006501000023
:04000003000007C929
:00000001FF
