:1000000000200010A1030000E5030000E50300004C
:10001000E5030000E5030000E50300000000000028
:10002000000000000000000000000000E5030000E8
:10003000E503000000000000E5030000E503000008
:10004000E5030000E5030000E5030000E503000010
:10005000E5030000E5030000E5030000E503000000
:10006000E5030000E5030000E5030000E5030000F0
:10007000E5030000E5030000E5030000E5030000E0
:10008000E5030000E5030000E5030000E5030000D0
:10009000E5030000E5030000E5030000E5030000C0
:1000A000E5030000E5030000E5030000E5030000B0
:1000B000E5030000E5030000E5030000E5030000A0
:1000C000E5030000E5030000E5030000E503000090
:1000D000E5030000E5030000E5030000E503000080
:1000E000E5030000E5030000E5030000E503000070
:1000F000E5030000E5030000E5030000E503000060
:10010000E5030000E5030000E5030000E50300004F
:1001100000000000E5030000E5030000E503000027
:04012000E5030000F3
:100124000348044B834202D0034B03B11847704782
:100134000000001000000010000000000548064BFD
:100144001B1AD90F01EBA301491002D0034B03B1D1
:100154001847704700000010000000100000000065
:1001640010B5064C237843B9FFF7DAFF044B13B1FB
:100174000448AFF300800123237010BD0000001079
:10018400000000003004000008B5054B1BB1054910
:100194000548AFF30080BDE80840FFF7CFBF00BFBC
:1001A400000000000400001030040000012230B4FC
:1001B40031251248124BD0F88010124C41F0400106
:1001C400C0F88010C3F88420C3F88820C3F89C20AA
:1001D400C3F8AC2022680C4842F00F022260D0F829
:1001E400FC2F0A4942F00F02C0F8FC2F1D610B6876
:1001F40030BC23F002030B60704700BF0080044052
:100204000040044000800350003003500080005040
:1002140005200B4AD2F8FC1F0A4B21F00F01C2F84B
:10022400FC1F013BFDD1D2F8FC1F064B41F00F012E
:10023400C2F8FC1F013BFDD10138EBD1704700BF70
:1002440000300350A086010003200C4A47F23053CB
:10025400D2F8FC1F21F00F01C2F8FC1F013BFDD1B5
:1002640047F23053D2F8FC1F41F00F01C2F8FC1FD3
:10027400013BFDD10138E9D1704700BF0030035084
:1002840070B50026FFF792FF354632463F4CD4F84E
:10029400FC3F9B071DD445B1002AF8D006BBD4F817
:1002A400FC3F990725D4002DF9D144F62063013B86
:1002B400FDD1D4F8FC3F9D0733D562BBD4F8FC5F75
:1002C400D4F8FC3FC5F3400585F001059B07EDB26A
:1002D400E1D50025002ADAD0E0E70025002AD6D0AF
:1002E400013E08D0D4F8FC3F9907F6D4002DD5D1AF
:1002F400DBE70025D3E7FFF7A7FF254AD2F8FC3F49
:1003040043F00F03C2F8FC3FD4F8FC3F9B0704D52D
:1003140035463246BBE70125C0E73246002DB6D14B
:10032400C3E74FF0FF331A480132D0F8FC1FD2B2B2
:10033400934041F00F0163F00F030B40032AC0F810
:10034400FC3F14D8D4F8FC3F9807FBD544F620634F
:10035400013BFDD112B101250E4E98E7D4F8FC5FA4
:100364000D4EC5F3400585F00105EDB28FE74CF263
:100374005035013DFDD1FFF74BFF054AD2F8FC3F54
:1003840043F00F03C2F8FC3F2A46DBE7003000507D
:10039400003003501FA1070020A10700002103E043
:1003A4000A4B5B584350043109480A4B42189A429D
:1003B400F6D3094A02E0002342F8043B074B9A4271
:1003C400F9D300F00FF8FFF75BFF7047500400000B
:1003D4000000001000000010000000101C000010BD
:1003E400FEE7000070B500260C4D0D4B5B1B9C1006
:1003F400A64209D1002600F019F80A4D0A4B5B1BEE
:100404009C10A64205D170BD55F8043B98470136AF
:10041400EEE755F8043B98470136F2E7480400003C
:1004240048040000480400004C040000F8B500BF74
:10043400F8BC08BC9E467047F8B500BFF8BC08BCC1
:040444009E46704719
:040448008D01000022
:04044C006501000046
:04000003000003A155
:00000001FF
