:100000000020001075050000B9050000B9050000CA
:10001000B9050000B9050000B905000000000000A6
:10002000000000000000000000000000B905000012
:10003000B905000000000000B9050000B905000086
:10004000B9050000B9050000B9050000B9050000B8
:10005000B9050000B9050000B9050000B9050000A8
:10006000B9050000B9050000B9050000B905000098
:10007000B9050000B9050000B9050000B905000088
:10008000B9050000B9050000B9050000B905000078
:10009000B9050000B9050000B9050000B905000068
:1000A000B9050000B9050000B9050000B905000058
:1000B000B9050000B9050000B9050000B905000048
:1000C000B9050000B9050000B9050000B905000038
:1000D000B9050000B9050000B9050000B905000028
:1000E000B9050000B9050000B9050000B905000018
:1000F000B9050000B9050000B9050000B905000008
:10010000B9050000B9050000B9050000B9050000F7
:1001100000000000B9050000B9050000B9050000A5
:04012000B90500001D
:100124000348044B834202D0034B03B11847704782
:100134000000001000000010000000000548064BFD
:100144001B1AD90F01EBA301491002D0034B03B1D1
:100154001847704700000010000000100000000065
:1001640010B5064C237843B9FFF7DAFF044B13B1FB
:100174000448AFF300800123237010BD0000001079
:10018400000000000406000008B5054B1BB105493A
:100194000548AFF30080BDE80840FFF7CFBF00BFBC
:1001A4000000000004000010040600004FF080422C
:1001B4002023136013681B07FCD55368DBB2082B9C
:1001C40001D0102B38D130B44FF080422025EC24DC
:1001D400082395619460936113681C07FCD55368E8
:1001E400182B05D0102108231160936130BC70478F
:1001F40008234FF0804C90609361DCF800301807BE
:10020400FBD5DCF80430282B1BD108234FF08042A7
:10021400CCF80810CCF8183013681907FCD55368CB
:10022400282BDFD1102008234FF080411060936108
:100234000B68DB06FCD4D9E72821102391611360F5
:10024400704710220823CCF80020CCF81830CDE7F2
:100254004FF0804C2023CCF80030DCF800301B0732
:10026400FBD5DCF80430DBB2082B01D0102B3ED1D7
:1002740070B44FF0804C2025EC240823CCF818509F
:10028400CCF80840CCF81830DCF800301B07FBD55C
:10029400DCF80430182B07D010220823CCF80020F7
:1002A400CCF8183070BC70470823CCF808004FF025
:1002B4008040CCF8183003681E07FCD54368282B0F
:1002C4002DD1202408234FF0804C04608361DCF896
:1002D40000301D07FBD5DCF80430DBB2102B0DD049
:1002E40010222823CCF80020CCF81830DAE7282292
:1002F4001023CCF81820CCF8003070472025ED24CA
:1003040008234FF08040CCF81850CCF80840CCF8C3
:10031400183003681C07FCD54368402B05D070BC1B
:10032400102208230260836170474FF0000C4FF0E5
:10033400804004260824551E0139AC45B4BF06602C
:100344008661846103681B07FCD583680CF1010C8A
:10035400944501F8013FF0D1102108234FF0804269
:10036400016083611368DB06FCD49BE72DE9F0434D
:1003740040274FF0804101224FF4B4764FF06C0CCB
:100384000025704BDFF8C0E1D3F8800083B0384318
:10039400C3F88000DEF800006C4C40F08000CEF81A
:1003A4000000D4F8FC0F40F08000C4F8FC0FD3F830
:1003B400800040F02000C3F88000586840F002003C
:1003C4005860A3F580431A63D0205A630E614E61CE
:1003D400C1F818C00F6069468DF80050FFF738FF68
:1003E4009DF80030582B1AD04CF24F33D4F8FC2F20
:1003F40022F08002C4F8FC2F00BF1A46013B002AF9
:10040400FAD14CF24F33D4F8FC2F42F08002C4F8F6
:10041400FC2F00BF1A46013B002AFAD1E4E706226A
:1004240069468820FFF714FF494EBDF80030494F54
:100434003380BDF80230DFF820813B80BDF8043002
:100444002721F420A8F80030FFF7B0FE2946F52054
:10045400FFF7ACFE0321D4F8FC2F404B22F08002BE
:10046400C4F8FC2F00BF1A46013B002AFAD1D4F885
:10047400FC2F3A4B42F08002C4F8FC2F00BF1A460E
:10048400013B002AFAD10139E5D1354B00BF1A46A8
:10049400013B002AFAD1334D334CDFF8B0900322EC
:1004A4006946FA20FFF7D4FE40F61B429DF801008E
:1004B4009DF800303188000140EA0330C1EB10138D
:1004C40003FB03F39DF802E0490040EA1E10C1EB70
:1004D400D001B8F90000B7F900C01B1300FB03F307
:1004E4000CFB01F19B1303EBE12303EB8303803348
:1004F400B2EB232F4FEA232121DB40F2DB53994255
:100504001A48C8BF2046D9F8FC1F431E21F08001B9
:100514001A46C9F8FC1F20B100BF1146013A002950
:10052400FAD1D9F8FC2F42F08002C9F8FC2F002838
:10053400B5D000BF1A46013B002AFAD1AFE72846DE
:10054400E1E700BF0080044000800050003000500C
:10055400200000101E0000101C000010DF93040097
:100564001FA10700A086010090D0030020A107006E
:10057400002103E00A4B5B584350043109480A4BFD
:1005840042189A42F6D3094A02E0002342F8043B97
:10059400074B9A42F9D300F00FF8FFF7E7FE7047D4
:1005A40024060000000000100000001000000010ED
:1005B40024000010FEE7000070B500260C4D0D4B22
:1005C4005B1B9C10A64209D1002600F019F80A4DC5
:1005D4000A4B5B1B9C10A64205D170BD55F8043B29
:1005E40098470136EEE755F8043B98470136F2E7A1
:1005F4001C0600001C0600001C060000200600006B
:10060400F8B500BFF8BC08BC9E467047F8B500BFFB
:08061400F8BC08BC9E467047CB
:04061C008D0100004C
:040620006501000070
:04000003000005757F
:00000001FF
