:1000000000200010FD020000410300004103000039
:100010004103000041030000410300000000000014
:10002000000000000000000000000000410300008C
:1000300041030000000000004103000041030000F4
:1000400041030000410300004103000041030000A0
:100050004103000041030000410300004103000090
:100060004103000041030000410300004103000080
:100070004103000041030000410300004103000070
:100080004103000041030000410300004103000060
:100090004103000041030000410300004103000050
:1000A0004103000041030000410300004103000040
:1000B0004103000041030000410300004103000030
:1000C0004103000041030000410300004103000020
:1000D0004103000041030000410300004103000010
:1000E0004103000041030000410300004103000000
:1000F00041030000410300004103000041030000F0
:1001000041030000410300004103000041030000DF
:100110000000000041030000410300004103000013
:040120004103000097
:100124000348044B834202D0034B03B11847704782
:100134000000001000000010000000000548064BFD
:100144001B1AD90F01EBA301491002D0034B03B1D1
:100154001847704700000010000000100000000065
:1001640010B5064C237843B9FFF7DAFF044B13B1FB
:100174000448AFF300800123237010BD0000001079
:10018400000000008C03000008B5054B1BB10549B5
:100194000548AFF30080BDE80840FFF7CFBF00BFBC
:1001A40000000000040000108C030000012210B4C1
:1001B4000E4C0F4BD4F880100E4841F04001C4F8A7
:1001C4008010C3F88420C3F88820C3F89C20C3F8A7
:1001D400AC200368084943F00F030360D1F8FC3FE7
:1001E40010BC43F00F03C1F8FC3F7047008004408B
:1001F40000400440008003500030035030B43125E7
:1002040002244FF0E02101200D4A0E4B15611A68BB
:1002140022F002021A605A6822F002025A609A68B6
:1002240022F002029A60DA6822F00202DA60DC61EB
:100234001A6922431A6130BCC1F80001704700BF3B
:10024400004004400080005008B5FFF7AFFFFFF7FF
:10025400D5FF4FF0010E244B244993F800C0244AE3
:100264000B78032BFCD8DFE803F038311702D2F8FF
:10027400FC0F0EFA0CF303F00F0340F00F0020EA1A
:1002840003004CF25033C2F8FC0F013BFDD10CF1DA
:10029400010C0CF0030CE3E7D2F8FC0F154B20F033
:1002A400050040F00A00C2F8FC0F013BFDD10B78B9
:1002B400022BD5D1D2F8FC0F0E4B20F00A0040F0EF
:1002C4000500C2F8FC0F013BFDD1C9E7D2F8FC3FA1
:1002D40023F00F03C2F8FC3FC2E7D2F8FC3F43F01F
:1002E4000F03C2F8FC3FBBE71C0000101D00001008
:1002F40000300350A0860100002103E00A4B5B5844
:100304004350043109480A4B42189A42F6D3094A29
:1003140002E0002342F8043B074B9A42F9D300F071
:100324000FF8FFF791FF7047AC03000000000010C6
:10033400000000100000001020000010FEE7000084
:1003440070B500260C4D0D4B5B1B9C10A64209D1C9
:10035400002600F019F80A4D0A4B5B1B9C10A642BC
:1003640005D170BD55F8043B98470136EEE755F8C2
:10037400043B98470136F2E7A4030000A4030000FD
:10038400A4030000A8030000F8B500BFF8BC08BC33
:100394009E467047F8B500BFF8BC08BC9E4670473F
:0403A4008D010000C7
:0403A80065010000EB
:04000003000002FDFA
:00000001FF
