:100000000020001075030000B9030000B9030000D0
:10001000B9030000B9030000B903000000000000AC
:10002000000000000000000000000000B903000014
:10003000B903000000000000B9030000B101000096
:10004000B9030000B9030000B9030000B9030000C0
:10005000B9030000B9030000B9030000B9030000B0
:10006000B9030000B9030000B9030000B9030000A0
:10007000B9030000B9030000B9030000B903000090
:10008000B9030000B9030000B9030000B903000080
:10009000B9030000B9030000B9030000B903000070
:1000A000B9030000B9030000B9030000B903000060
:1000B000B9030000B9030000B9030000B903000050
:1000C000B9030000B9030000B9030000B903000040
:1000D000B9030000B9030000B9030000B903000030
:1000E000B9030000B9030000B9030000B903000020
:1000F000B9030000B9030000B9030000B903000010
:10010000B9030000B9030000B9030000B9030000FF
:1001100000000000B9030000B9030000B9030000AB
:04012000B90300001F
:100124000348044B834202D0034B03B11847704782
:100134000000001000000010000000000548064BFD
:100144001B1AD90F01EBA301491002D0034B03B1D1
:100154001847704700000010000000100000000065
:1001640010B5064C237843B9FFF7DAFF044B13B1FB
:100174000448AFF300800123237010BD0000001079
:10018400000000000404000008B5054B1BB105493C
:100194000548AFF30080BDE80840FFF7CFBF00BFBC
:1001A400000000000400001004040000024A136868
:1001B40001331360704700BF1C000010012210B40B
:1001C4000E4C0F4BD4F880100E4841F04001C4F897
:1001D4008010C3F88420C3F88820C3F89C20C3F897
:1001E400AC200368084943F00F030360D1F8FC3FD7
:1001F40010BC43F00F03C1F8FC3F7047008004407B
:1002040000400440008003500030035010B5FFF755
:10021400D5FF00244FF0E0220720DFF848C15249FF
:10022400C2F814C094611061D1F8FC2F4F4B22F036
:100234000F02C1F8FC2F19681A68521AC72AFBD991
:100244004949D1F8FC2F42F00F02C1F8FC2F19687C
:100254001A68521AC72AFBD901204349D1F8FC2F46
:1002640022F00102C1F8FC2F1C681A68121BB2F5B7
:10027400FA7FFAD3D1F8FC2F42F00102C1F8FC2F27
:100284001C681A68121BB2F5FA7FFAD34FF0050CFA
:10029400D1F8FC2F22F00202C1F8FC2F1C681A6866
:1002A400121B632AFBD9D1F8FC2F42F00202C1F8D9
:1002B400FC2F1C681A68121B632AFBD9BCF1010CC1
:1002C400E6D1D1F8FC2F00FA0CF422EA0402C1F8BA
:1002D400FC2F1C681A68121B952AFBD90CF1010C1F
:1002E400BCF1040FEDD11C681A68121BB2F5967F9D
:1002F400FAD34FF0030CD1F8FC4F00FA0CF222436E
:10030400C1F8FC2F1C681A68121B952AFBD9BCF192
:10031400010CF0D21C681A68121BB2F5967FFAD34E
:100324004FF0030CD1F8FC2F22F00F02C1F8FC2F80
:100334001C681A68121BC72AFBD9D1F8FC2F42F09B
:100344000F02C1F8FC2F1C681A68121BC72AFBD9BC
:10035400BCF1010CE6D11C681A68121BB2F5FA7FD5
:10036400FAD37BE73F190100003003501C00001052
:10037400002103E00A4B5B584350043109480A4BFF
:1003840042189A42F6D3094A02E0002342F8043B99
:10039400074B9A42F9D300F00FF8FFF737FF704785
:1003A40024040000000000100000001000000010F1
:1003B40020000010FEE7000070B500260C4D0D4B28
:1003C4005B1B9C10A64209D1002600F019F80A4DC7
:1003D4000A4B5B1B9C10A64205D170BD55F8043B2B
:1003E40098470136EEE755F8043B98470136F2E7A3
:1003F4001C0400001C0400001C0400002004000075
:10040400F8B500BFF8BC08BC9E467047F8B500BFFD
:08041400F8BC08BC9E467047CD
:04041C008D0100004E
:040420006501000072
:040000030000037581
:00000001FF
