:100000000020001005020000490200004902000023
:1000100049020000490200004902000000000000FF
:100020000000000000000000000000004902000085
:1000300049020000000000004902000049020000DF
:100040004902000049020000490200004902000084
:100050004902000049020000490200004902000074
:100060004902000049020000490200004902000064
:100070004902000049020000490200004902000054
:100080004902000049020000490200004902000044
:100090004902000049020000490200004902000034
:1000A0004902000049020000490200004902000024
:1000B0004902000049020000490200004902000014
:1000C0004902000049020000490200004902000004
:1000D00049020000490200004902000049020000F4
:1000E00049020000490200004902000049020000E4
:1000F00049020000490200004902000049020000D4
:1001000049020000490200004902000049020000C3
:1001100000000000490200004902000049020000FE
:040120004902000090
:100124000348044B834202D0034B03B11847704782
:100134000000001000000010000000000548064BFD
:100144001B1AD90F01EBA301491002D0034B03B1D1
:100154001847704700000010000000100000000065
:1001640010B5064C237843B9FFF7DAFF044B13B1FB
:100174000448AFF300800123237010BD0000001079
:10018400000000009402000008B5054B1BB10549AE
:100194000548AFF30080BDE80840FFF7CFBF00BFBC
:1001A40000000000040000109402000010481149EF
:1001B400D0F88030104A43F04003C0F880300B6818
:1001C40043F001030B60D2F8FC1F0C4B21F001013A
:1001D400C2F8FC1F013B002BFCDCD2F8FC1F074BD0
:1001E40041F00101C2F8FC1F013B002BFCDCEAE7F3
:1001F40000800440008003500030035020A1070019
:10020400002103E00A4B5B584350043109480A4B70
:1002140042189A42F6D3094A02E0002342F8043B0A
:10022400074B9A42F9D300F00FF8FFF7BFFF70476E
:10023400B4020000000000100000001000000010D4
:100244001C000010FEE7000070B500260C4D0D4B9D
:100254005B1B9C10A64209D1002600F019F80A4D38
:100264000A4B5B1B9C10A64205D170BD55F8043B9C
:1002740098470136EEE755F8043B98470136F2E714
:10028400AC020000AC020000AC020000B0020000AE
:10029400F8B500BFF8BC08BC9E467047F8B500BF6F
:0802A400F8BC08BC9E4670473F
:0402AC008D010000C0
:0402B00065010000E4
:0400000300000205F2
:00000001FF
