:1000000000200010C50500000906000009060000D8
:1000100009060000090600000906000000000000B3
:1000200000000000000000000000000009060000C1
:100030000906000000000000090600000906000093
:100040000906000009060000090600000906000074
:100050000906000009060000090600000906000064
:100060000906000009060000090600000906000054
:100070000906000009060000090600000906000044
:100080000906000009060000090600000906000034
:100090000906000009060000090600000906000024
:1000A0000906000009060000090600000906000014
:1000B0000906000009060000090600000906000004
:1000C00009060000090600000906000009060000F4
:1000D00009060000090600000906000009060000E4
:1000E00009060000090600000906000009060000D4
:1000F00009060000090600000906000009060000C4
:1001000009060000090600000906000009060000B3
:1001100000000000090600000906000009060000B2
:0401200009060000CC
:100124000348044B834202D0034B03B11847704782
:100134000000001000000010000000000548064BFD
:100144001B1AD90F01EBA301491002D0034B03B1D1
:100154001847704700000010000000100000000065
:1001640010B5064C237843B9FFF7DAFF044B13B1FB
:100174000448AFF300800123237010BD0000001079
:10018400000000005406000008B5054B1BB10549EA
:100194000548AFF30080BDE80840FFF7CFBF00BFBC
:1001A400000000000400001054060000074AD36851
:1001B4009907FCD505499060CB68DA06FCD4034A5C
:1001C400D3685B07FCD59068C0B270470000044058
:1001D40030B4FF2005241449144BD1F8FC2F22F02D
:1001E4000402C1F8FC2FDA689207FCD59C60DA6837
:1001F400D506FCD4DA685207FCD59A68DA68950704
:10020400FCD59860DA68D206FCD4DA685507FCD5C8
:100214009D68D1F8FC2F42F00402C1F8FC2FEA07D4
:10022400DBD430BC704700BF0030005000000440F5
:1002340038B51C4C0620D4F8FC3F23F00403C4F862
:10024400FC3FFFF7B3FF0520FF21D4F8FC2F164B2A
:1002540042F00402C4F8FC2FD4F8FC2F22F004026C
:10026400C4F8FC2FDA689207FCD59860DA68D506E2
:10027400FCD4DA685207FCD59A68DA689507FCD58D
:100284009960DA68D206FCD4DA685507FCD59D6813
:10029400D4F8FC2F42F00402C4F8FC2FAA07DBD5E3
:1002A40038BD00BF003000500000044070B5012587
:1002B40002214FF0000E42F2073CB84BB84CD3F881
:1002C400802084B042F04002C3F880202268B54800
:1002D40042F080022260D0F8FC6FB34A46F08006F8
:1002E400C0F8FC6FD3F8806046F40066C3F8806001
:1002F400C3F894505E682E435E60C2F8B010116675
:100304009566D566C2F81CE02368A2F5804243F0E6
:1003140004032360D0F8FC3F43F00403C0F8FC3F1F
:10032400A24BC2F800C01161516000BF1A46013BE4
:10033400002AFAD19B4C9F20D4F8FC3F23F00403FD
:10034400C4F8FC3FFFF732FFFF20FFF72FFF0646FC
:10035400FF20FFF72BFF0546FF20FFF727FFD4F808
:10036400FC2FEF2E42F00402C4F8FC2F1BD08D4961
:100374004CF24F33D1F8FC2F22F08002C1F8FC2F4D
:1003840000BF1A46013B002AFAD14CF24F33D1F890
:10039400FC2F42F08002C1F8FC2F00BF1A46013B3B
:1003A400002AFAD1E4E7402DE1D11528DFD1D4F8B1
:1003B400FC3F7E4A23F08003C4F8FC3F00BF134691
:1003C400013A002BFAD17749784AD1F8FC3F43F03F
:1003D4008003C1F8FC3F00BF1546013A002DFAD155
:1003E400704CFFF725FFD4F8FC3F202023F00403D2
:1003F400C4F8FC3FFFF7DAFE2846FFF7D7FE28468D
:10040400FFF7D4FE2846FFF7D1FED4F8FC3F43F0B3
:100414000403C4F8FC3FFFF7DBFED4F8FC3F634A57
:1004240023F08003C4F8FC3F00BF1346013A002BBD
:10043400FAD15C495D4AD1F8FC3F43F08003C1F82E
:10044400FC3F00BF1446013A002CFAD1FFF7F0FE3E
:10045400544A0220D2F8FC3F23F00403C2F8FC3FC4
:10046400FFF7A4FE2046FFF7A1FE2046FFF79EFEFD
:100474002046FFF79BFE4E494E4B4C1C01F11000E9
:1004840011F8015FDA689207FCD59D60DA68D60638
:10049400FCD4DA685507FCD588429A68F0D1414DFE
:1004A400D5F8FC3F43F00403C5F8FC3FFFF790FE8A
:1004B400D5F8FC3F3D4A23F08003C5F8FC3F00BF5C
:1004C4001346013A002BFAD13649384AD1F8FC3F99
:1004D40043F08003C1F8FC3F00BF1546013A002DEC
:1004E400FAD1304A0320D2F8FC3FFF2623F004035C
:1004F400C2F8FC3FFFF75AFE2846FFF757FE28468E
:10050400FFF754FE2846FFF751FE6946294B0DF1CB
:10051400FF300DF10F05DA689207FCD59E60DA68AA
:10052400D206FCD4DA685207FCD59A6800F8012F89
:10053400A842F0D11B4AD2F8FC3F43F00403C2F8AE
:10054400FC3F11F8012B14F8013B9A427FF40FAFE2
:1005540004AB8B42F5D113490520D1F8FC2F164B7F
:1005640022F08002C1F8FC2F00BF1A46013B002A8A
:10057400FAD1D1F8FC2F104B42F08002C1F8FC2FC5
:1005840000BF1A46013B002AFAD10138E5D10B4BD2
:1005940000BF1A46013B002AFAD1DDE7008004407F
:1005A4000080005000300050004004409F8601004D
:1005B4006F06000000000440DF9304003F420F0078
:1005C400002103E00A4B5B584350043109480A4BAD
:1005D40042189A42F6D3094A02E0002342F8043B47
:1005E400074B9A42F9D300F00FF8FFF75FFE70470C
:1005F4008806000000000010000000100000001039
:100604001C000010FEE7000070B500260C4D0D4BD9
:100614005B1B9C10A64209D1002600F019F80A4D74
:100624000A4B5B1B9C10A64205D170BD55F8043BD8
:1006340098470136EEE755F8043B98470136F2E750
:10064400800600008006000080060000840600008A
:10065400F8B500BFF8BC08BC9E467047F8B500BFAB
:08066400F8BC08BC9E4670477B
:10067000DEADBEEFCAFEBABE123456789ABCDEF0CA
:040680008D010000E8
:04068400650100000C
:04000003000005C52F
:00000001FF
