:100000000020001071030000B5030000B5030000DC
:10001000B5030000B5030000B503000000000000B8
:10002000000000000000000000000000B503000018
:10003000B503000000000000B5030000B10100009E
:10004000B5030000B5030000B5030000B5030000D0
:10005000B5030000B5030000B5030000B5030000C0
:10006000B5030000B5030000B5030000B5030000B0
:10007000B5030000B5030000B5030000B5030000A0
:10008000B5030000B5030000B5030000B503000090
:10009000B5030000B5030000B5030000B503000080
:1000A000B5030000B5030000B5030000B503000070
:1000B000B5030000B5030000B5030000B503000060
:1000C000B5030000B5030000B5030000B503000050
:1000D000B5030000B5030000B5030000B503000040
:1000E000B5030000B5030000B5030000E9010000FE
:1000F00019020000B5030000B5030000B5030000BD
:10010000B5030000B5030000B5030000B50300000F
:1001100000000000B5030000B5030000B5030000B7
:04012000B503000023
:100124000348044B834202D0034B03B11847704782
:100134000000001000000010000000000548064BFD
:100144001B1AD90F01EBA301491002D0034B03B1D1
:100154001847704700000010000000100000000065
:1001640010B5064C237843B9FFF7DAFF044B13B1FB
:100174000448AFF300800123237010BD0000001079
:10018400000000000004000008B5054B1BB1054940
:100194000548AFF30080BDE80840FFF7CFBF00BFBC
:1001A400000000000400001000040000094B0A488D
:1001B4001A680A4901321A601B6800FB03F3B1EBA9
:1001C400F30F06D3064AD2F8FC3F83F00403C2F8C7
:1001D400FC3F704724000010D578E9263789410098
:1001E40000300350084B1A68D2070BD50120074989
:1001F40018600B68064A03440B60D2F8FC3F434086
:10020400C2F8FC3F704700BF0040014020000010CE
:1002140000300350084B1A68D2070CD50120074957
:1002240018600B68064A03440B60D2F8FC3F83F065
:100234000203C2F8FC3F7047008001401C0000101C
:1002440000300350012210B40E4C0F4BD4F8801030
:100254000E4841F04001C4F88010C3F88420C3F86C
:100264008820C3F89C20C3F8AC200368084943F0F5
:100274000F030360D1F8FC3F10BC43F00F03C1F837
:10028400FC3F70470080044000400440008003505D
:1002940000300350F0B54FF0000C4FF0020E47272A
:1002A40003261F254FF0E0204FF4802401210A4A41
:1002B400D2F8803043F40073C2F88030074B084A08
:1002C400C3F804E0C3F804C0DF609A615E611D6096
:1002D400C0F800415960F0BD008004400040014076
:1002E4008FD00300F0B54FF0000C4FF0020E4727FB
:1002F40003261F254FF0E0204FF4002401210A4A71
:10030400D2F8803043F48063C2F88030074B084A47
:10031400C3F804E0C3F804C0DF609A615E611D6045
:10032400C0F800415960F0BD0080044000800140E5
:100334001FA1070008B5FFF785FF4FF0E023072250
:1003440000210848586199611A61FFF7A3FFFFF77C
:10035400C9FF054AD2F8FC3F23F00803C2F8FC3F6A
:1003640030BFFDE73F19010000300350002103E0D6
:100374000A4B5B584350043109480A4B42189A42CD
:10038400F6D3094A02E0002342F8043B074B9A42A1
:10039400F9D300F00FF8FFF7CDFF704720040000F9
:1003A40000000010000000100000001028000010E1
:1003B400FEE7000070B500260C4D0D4B5B1B9C1036
:1003C400A64209D1002600F019F80A4D0A4B5B1B1E
:1003D4009C10A64205D170BD55F8043B98470136E0
:1003E400EEE755F8043B98470136F2E7180400009D
:1003F40018040000180400001C040000F8B500BF35
:10040400F8BC08BC9E467047F8B500BFF8BC08BCF1
:040414009E46704749
:040418008D01000052
:04041C006501000076
:040000030000037185
:00000001FF
