:100000000020001055020000990200009902000033
:10001000990200009902000099020000000000000F
:100020000000000000000000000000009902000035
:1000300099020000000000009902000099020000EF
:100040009902000099020000990200009902000044
:100050009902000099020000990200009902000034
:100060009902000099020000990200009902000024
:100070009902000099020000990200009902000014
:100080009902000099020000990200009902000004
:1000900099020000990200009902000099020000F4
:1000A00099020000990200009902000099020000E4
:1000B00099020000990200009902000099020000D4
:1000C00099020000990200009902000099020000C4
:1000D00099020000990200009902000099020000B4
:1000E00099020000990200009902000099020000A4
:1000F0009902000099020000990200009902000094
:100100009902000099020000990200009902000083
:10011000000000009902000099020000990200000E
:040120009902000040
:100124000348044B834202D0034B03B11847704782
:100134000000001000000010000000000548064BFD
:100144001B1AD90F01EBA301491002D0034B03B1D1
:100154001847704700000010000000100000000065
:1001640010B5064C237843B9FFF7DAFF044B13B1FB
:100174000448AFF300800123237010BD0000001079
:1001840000000000E402000008B5054B1BB105495E
:100194000548AFF30080BDE80840FFF7CFBF00BFBC
:1001A4000000000004000010E4020000012210B46A
:1001B4000E4C0F4BD4F880100E4841F04001C4F8A7
:1001C4008010C3F88420C3F88820C3F89C20C3F8A7
:1001D400AC200368084943F00F030360D1F8FC3FE7
:1001E40010BC43F00F03C1F8FC3F7047008004408B
:1001F400004004400080035000300350012000B54B
:1002040000228646DFF834C0DCF8FC1F0EFA02F345
:1002140003F00F0341F00F0121EA0301084BCCF86E
:10022400FC1F013BFDD10244D2B2022A03D8002AAA
:1002340008BF0120E8E74FF0FF30E5E70030035046
:10024400A086010008B5FFF7B1FFFFF7D7FF00BF95
:10025400002103E00A4B5B584350043109480A4B20
:1002640042189A42F6D3094A02E0002342F8043BBA
:10027400074B9A42F9D300F00FF8FFF7E3FF7047FA
:100284000403000000000010000000100000001033
:100294001C000010FEE7000070B500260C4D0D4B4D
:1002A4005B1B9C10A64209D1002600F019F80A4DE8
:1002B4000A4B5B1B9C10A64205D170BD55F8043B4C
:1002C40098470136EEE755F8043B98470136F2E7C4
:1002D400FC020000FC020000FC020000000300001D
:1002E400F8B500BFF8BC08BC9E467047F8B500BF1F
:0802F400F8BC08BC9E467047EF
:0402FC008D01000070
:040300006501000093
:0400000300000255A2
:00000001FF
