:100000000020001041040000850400008504000069
:100010008504000085040000850400000000000045
:100020000000000000000000000000008504000047
:100030008504000000000000850400008504000025
:10004000850400008504000085040000850400008C
:10005000850400008504000085040000850400007C
:10006000850400008504000085040000850400006C
:10007000850400008504000085040000850400005C
:10008000850400008504000085040000850400004C
:10009000850400008504000085040000850400003C
:1000A000850400008504000085040000850400002C
:1000B000850400008504000085040000850400001C
:1000C000850400008504000085040000850400000C
:1000D00085040000850400008504000085040000FC
:1000E00085040000850400008504000085040000EC
:1000F000B1010000850400008504000085040000B3
:1001000085040000850400008504000085040000CB
:100110000000000085040000850400008504000044
:040120008504000052
:100124000348044B834202D0034B03B11847704782
:100134000000001000000010000000000548064BFD
:100144001B1AD90F01EBA301491002D0034B03B1D1
:100154001847704700000010000000100000000065
:1001640010B5064C237843B9FFF7DAFF044B13B1FB
:100174000448AFF300800123237010BD0000001079
:1001840000000000D004000008B5054B1BB1054970
:100194000548AFF30080BDE80840FFF7CFBF00BFBC
:1001A4000000000004000010D0040000054B1A6891
:1001B400D20705D50121044A196013680B44136062
:1001C400704700BF008001401C0000102DE9F04181
:1001D4004FF0470C4FF002084FF0000E40F2E737A3
:1001E40003261F254FF0E0204FF4002401210B4A81
:1001F400D2F8803043F48063C2F88030084BC3F8EF
:100204000480C3F804E0C3F80CC09F615E611D6004
:10021400C0F800415960BDE8F08100BF008004408F
:1002240000800140012210B40E4C0F4BD4F8801012
:100234000E4841F04001C4F88010C3F88420C3F88C
:100244008820C3F89C20C3F8AC200368084943F015
:100254000F030360D1F8FC3F10BC43F00F03C1F857
:10026400FC3F70470080044000400440008003507D
:1002740000300350F0B4002202204FF0FF374FF457
:10028400806601250A4C0B4BD4F8801041F40071B0
:10029400C4F880100849C1F8A40058605A60DA60B4
:1002A4005F629A615E615A675D60F0BC704700BF2F
:1002B40000800440004001400040044010B4264A3D
:1002C400F0B9D2F8FC3F254C43F00F03C2F8FC3FD1
:1002D4006067234A106813681B1A9942FBD80021EF
:1002E4001E4B5967116813685B1A312BFBD91A4AE4
:1002F40010BCD2F8FC3F43F00F03C2F8FC3F704738
:10030400B0F5967FD2F8FC3F10D223F0010343F0FE
:100314000E03C2F8FC3F134B0124B3FBF0F30F4A66
:10032400581EE340506293615467D2E7B0F5AF7F43
:1003340006D223F0030343F00C03C2F8FC3FEAE7C0
:10034400B0F5C87F36BF23F0070323F00F0343F053
:100354000803C2F8FC3FDEE70030035000400140D0
:100364001C00001000A24A0430B50D4B85B004AD4A
:100374000FCBADF1020405E90F000DF10E0534F8C1
:10038400020FC821FFF79AFFAC42F8D1054A116861
:1003940013685B1AB3F5FA7FFAD305B030BD00BF1A
:1003A400E80400001C00001080B5FFF73BFF31217A
:1003B4001C4B1D4A196113681C4D23F00203136082
:1003C400FFF704FFFFF756FFFFF7CEFF184E194F54
:1003D4004FF49671184C34F8040CFFF76FFF6188E2
:1003E40004340029F7D1D6F8FC3F23F00F03C6F8F4
:1003F400FC3FD7F8FC3F9A07FBD42A682B689B1A6A
:10040400312BFBD9D7F8FC3F9B07FBD52A682B6817
:100414009B1AC72BFBD9D6F8FC3F43F00F03C6F851
:10042400FC3FD5E700400440008000501C00001051
:100434000030035000300050FC040000002103E0B1
:100444000A4B5B584350043109480A4B42189A42FC
:10045400F6D3094A02E0002342F8043B074B9A42D0
:10046400F9D300F00FF8FFF79FFF70477005000005
:100474000000001000000010000000102000001018
:10048400FEE7000070B500260C4D0D4B5B1B9C1065
:10049400A64209D1002600F019F80A4D0A4B5B1B4D
:1004A4009C10A64205D170BD55F8043B984701360F
:1004B400EEE755F8043B98470136F2E7680500007B
:1004C40068050000680500006C050000F8B500BF71
:1004D400F8BC08BC9E467047F8B500BFF8BC08BC21
:0404E4009E46704779
:1004E800060126014A015D018801B801EE010B02EF
:1004F8004A012C0126012C0106012C0126012C01A0
:100508004A012C014A012C014A01580226012C01FA
:1005180026012C01260158024A012C0188012C01D0
:10052800880158024A012C0126012C0106012C01E0
:1005380026012C014A012C014A012C014A012C01F7
:100548004A012C0126012C0126012C014A012C010B
:1005580026012C01060184030000F40100000000BC
:040568008D01000001
:04056C006501000025
:0400000300000441B4
:00000001FF
