:1000000000200010F5020000390300003903000051
:10001000390300003903000039030000000000002C
:100020000000000000000000000000003903000094
:10003000390300000000000039030000390300000C
:1000400039030000390300003903000039030000C0
:1000500039030000390300003903000039030000B0
:1000600039030000390300003903000039030000A0
:100070003903000039030000390300003903000090
:100080003903000039030000390300003903000080
:100090003903000039030000390300003903000070
:1000A0003903000039030000390300003903000060
:1000B0003903000039030000390300003903000050
:1000C0003903000039030000390300003903000040
:1000D0003903000039030000390300003903000030
:1000E0003903000039030000390300003903000020
:1000F0003903000039030000390300003903000010
:1001000039030000390300003903000039030000FF
:10011000000000003903000039030000390300002B
:04012000B101000029
:100124000348044B834202D0034B03B11847704782
:100134000000001000000010000000000548064BFD
:100144001B1AD90F01EBA301491002D0034B03B1D1
:100154001847704700000010000000100000000065
:1001640010B5064C237843B9FFF7DAFF044B13B1FB
:100174000448AFF300800123237010BD0000001079
:10018400000000008403000008B5054B1BB10549BD
:100194000548AFF30080BDE80840FFF7CFBF00BFBC
:1001A400000000000400001084030000044B9A695E
:1001B400920704D502200121024AD86111707047C8
:1001C400008000501C00001010250224414900B595
:1001D400D1F880204FF0E02C4FF0004E3E4B42F01F
:1001E40040020320C1F880201A683C4942F0800292
:1001F4001A60D1F8FC2F42F08002C1F8FC2F384A73
:1002040015611A6822F002021A605A6822F002028A
:100214005A609A6822F002029A60DA6822F00202B6
:10022400DA60DC611A6922431A61CCF880E2CCF806
:1002340000E1D1F8FC2F2B4B22F08002C1F8FC2FF7
:1002440000BF1A46013B002AFAD1D1F8FC2F254BF6
:1002540042F08002C1F8FC2F00BF1A46013B002A7D
:10026400FAD1013810F0FF00E3D11F4B00BF1C4648
:10027400013B002CFAD14FF0E02C1C4817490470C4
:10028400DCF8103D23F00403CCF8103D30BF0378B4
:10029400002BF4D0D1F8FC2F124B22F08002C1F8CD
:1002A400FC2F00BF1A46013B002AFAD1D1F8FC2FDB
:1002B4000C4B42F08002C1F8FC2F00BF1A46013BF0
:1002C400002AFAD1074B00BF1A46013B002AFAD193
:1002D400D5E700BF0080044000800050003000508B
:1002E400004004403F0D03001FA107001C00001044
:1002F400002103E00A4B5B584350043109480A4B80
:1003040042189A42F6D3094A02E0002342F8043B19
:10031400074B9A42F9D300F00FF8FFF755FF7047E7
:10032400A4030000000000100000001000000010F2
:1003340020000010FEE7000070B500260C4D0D4BA8
:100344005B1B9C10A64209D1002600F019F80A4D47
:100354000A4B5B1B9C10A64205D170BD55F8043BAB
:1003640098470136EEE755F8043B98470136F2E723
:100374009C0300009C0300009C030000A0030000F9
:10038400F8B500BFF8BC08BC9E467047F8B500BF7E
:08039400F8BC08BC9E4670474E
:04039C008D010000CF
:0403A00065010000F3
:04000003000002F502
:00000001FF
