:1000000000200010D50300001904000019040000AE
:100010001904000019040000190400000000000089
:1000200000000000000000000000000019040000B3
:100030001904000000000000190400001904000069
:10004000190400001904000019040000190400003C
:10005000190400001904000019040000190400002C
:10006000190400001904000019040000190400001C
:10007000190400001904000019040000190400000C
:1000800019040000190400001904000019040000FC
:1000900019040000190400001904000019040000EC
:1000A00019040000190400001904000019040000DC
:1000B00019040000190400001904000019040000CC
:1000C00019040000190400001904000019040000BC
:1000D00019040000190400001904000019040000AC
:1000E000190400001904000019040000190400009C
:1000F000190400001904000019040000190400008C
:10010000190400001904000019040000190400007B
:100110000000000019040000190400001904000088
:0401200019040000BE
:100124000348044B834202D0034B03B11847704782
:100134000000001000000010000000000548064BFD
:100144001B1AD90F01EBA301491002D0034B03B1D1
:100154001847704700000010000000100000000065
:1001640010B5064C237843B9FFF7DAFF044B13B1FB
:100174000448AFF300800123237010BD0000001079
:10018400000000006404000008B5054B1BB10549DC
:100194000548AFF30080BDE80840FFF7CFBF00BFBC
:1001A4000000000004000010640400002DE9F04782
:1001B40040274FF0804201264FF4B4754FF06C0C89
:1001C40005247C4BDFF8F0E1D3F880103943C3F801
:1001D4008010DEF80000794940F08000CEF800007D
:1001E400D1F8FC0F40F08000C1F8FC0FD3F8800078
:1001F40040F02000C3F88000586840F002005860C6
:10020400A3F580431E635E6315615561C2F818C08F
:1002140017604CF24F33D1F8FC2F22F08002C1F862
:10022400FC2F00BF1A46013B002AFAD14CF24F338F
:10023400D1F8FC2F42F08002C1F8FC2F00BF1A460F
:10024400013B002AFAD1013CE3D15D4B00BF1A46C1
:10025400013B002AFAD11026082496464FF080402C
:1002640020274FF0280AB146A046DFF850C10760A6
:1002740003681A07FCD54368DBB2082B5CD0102B4B
:100284005AD0C0F818A0C0F800900134E4B2782C19
:1002940006F10206EBD14B4B00BF1A46013B002A84
:1002A400FAD14649BEF1000F37D00020D1F8FC2F17
:1002B400434B22F08002C1F8FC2F00BF1A46013BD9
:1002C400002AFAD1D1F8FC2F3D4B42F08002C1F84C
:1002D400FC2F00BF1A46013B002AFAD101307045B9
:1002E400E4D1394B00BF1A46013B002AFAD1DCE7BE
:1002F4004CF24F33D1F8FC2F42F08002C1F8FC2FAE
:1003040000BF1A46013B002AFAD1013806D12E4B10
:1003140000BF1A46013B002AFAD10A204CF24F339F
:10032400D1F8FC2F22F08002C1F8FC2F00BF1A463E
:10033400013B002AFAD1DBE787618660C0F81880A8
:1003440003681B07FCD54368C0F80090DBB2C0F813
:100354001880016811F01001FBD1182B95D114F00D
:100364000F0508BF10250EF1010E5FFA8EFEDCF8B2
:10037400FC2F164B22F08002CCF8FC2F00BF1A464B
:10038400013B002AFAD1DCF8FC2F104B42F080022A
:10039400CCF8FC2F00BF1A46013B002AFAD10131E8
:1003A4008D42E4D1074B00BF1A46013B002AFAD123
:1003B4006BE700BF00800440008000500030005014
:1003C4001FA107003F420F007F841E003F0D030062
:1003D400002103E00A4B5B584350043109480A4B9F
:1003E40042189A42F6D3094A02E0002342F8043B39
:1003F400074B9A42F9D300F00FF8FFF7D7FE704786
:100404008404000000000010000000100000001030
:100414001C000010FEE7000070B500260C4D0D4BCB
:100424005B1B9C10A64209D1002600F019F80A4D66
:100434000A4B5B1B9C10A64205D170BD55F8043BCA
:1004440098470136EEE755F8043B98470136F2E742
:100454007C0400007C0400007C0400008004000094
:10046400F8B500BFF8BC08BC9E467047F8B500BF9D
:08047400F8BC08BC9E4670476D
:04047C008D010000EE
:040480006501000012
:04000003000003D521
:00000001FF
