:10000000002000104102000085020000850200006F
:10001000850200008502000085020000000000004B
:100020000000000000000000000000008502000049
:10003000850200000000000085020000B101000000
:100040008502000085020000850200008502000094
:100050008502000085020000850200008502000084
:100060008502000085020000850200008502000074
:100070008502000085020000850200008502000064
:100080008502000085020000850200008502000054
:100090008502000085020000850200008502000044
:1000A0008502000085020000850200008502000034
:1000B0008502000085020000850200008502000024
:1000C0008502000085020000850200008502000014
:1000D0008502000085020000850200008502000004
:1000E00085020000850200008502000085020000F4
:1000F00085020000850200008502000085020000E4
:1001000085020000850200008502000085020000D3
:10011000000000008502000085020000850200004A
:040120008502000054
:100124000348044B834202D0034B03B11847704782
:100134000000001000000010000000000548064BFD
:100144001B1AD90F01EBA301491002D0034B03B1D1
:100154001847704700000010000000100000000065
:1001640010B5064C237843B9FFF7DAFF044B13B1FB
:100174000448AFF300800123237010BD0000001079
:1001840000000000D002000008B5054B1BB1054972
:100194000548AFF30080BDE80840FFF7CFBF00BFBC
:1001A4000000000004000010D00200000122014BF6
:1001B4001A7070471C00001000B54FF0E0214FF09A
:1001C400000C4FF0070E184A1848D2F8803043F05C
:1001D4004003C2F88030164A136843F0800313606A
:1001E400D0F8FC3F134A43F08003C0F8FC3F124BA5
:1001F4004B61C1F818C0C1F810E0D0F8FC3F83F09F
:100204008003C0F8FC3F82F800C0D1F8103D23F011
:100214000403C1F8103D1378002BEED130BF1378DE
:10022400002BFBD0E9E700BF008004400030005001
:10023400008000501C0000107F8D5B00002103E053
:100244000A4B5B584350043109480A4B42189A42FE
:10025400F6D3094A02E0002342F8043B074B9A42D2
:10026400F9D300F00FF8FFF7A7FF7047F002000082
:10027400000000100000001000000010200000101A
:10028400FEE7000070B500260C4D0D4B5B1B9C1067
:10029400A64209D1002600F019F80A4D0A4B5B1B4F
:1002A4009C10A64205D170BD55F8043B9847013611
:1002B400EEE755F8043B98470136F2E7E802000000
:1002C400E8020000E8020000EC020000F8B500BFFC
:1002D400F8BC08BC9E467047F8B500BFF8BC08BC23
:0402E4009E4670477B
:0402E8008D01000084
:0402EC0065010000A8
:0400000300000241B6
:00000001FF
